:020000040800F2
:10000000002800203D1200085D1000086310000861
:10001000691000086F10000875100008000000004B
:100020000000000000000000000000007B1000083D
:100030008710000800000000931000089F100008BF
:100040008512000885120008851200088512000834
:100050008512000885120008851200088512000824
:100060008512000885120008851200088512000814
:100070008512000885120008851200088512000804
:1000800085120008851200088512000885120008F4
:1000900085120008851200088512000885120008E4
:1000A00085120008851200088512000885120008D4
:1000B000AD1000088512000800000000851200083D
:1000C00085120008000000000000000085120008F2
:1000D00000000000851200088512000800000000E2
:1000E0008512000885120008851200080000000033
:1000F0000000000000000000000000000000000000
:0C01000000000000000000005FF808F1A3
:10010C0010B5054C237833B9044B13B10448AFF345
:10011C0000800123237010BD34000020000000007B
:10012C005C28000808B5034B1BB103490348AFF327
:10013C00008008BD00000000380000205C2800088A
:10014C0080B500AF794B1B68012B74D1784B1B68C1
:10015C00002B02D0012B32D0E6E001224FF480714B
:10016C00744801F077FB00224FF40071714801F0E4
:10017C0071FB01224FF480616E4801F06BFB002291
:10018C004FF400616B4801F065FB6B4B1B686B4ACD
:10019C0082FB03129210DB17D31A184600F072FB85
:1001AC00674B1B68654A82FB03129210DB17D31A4C
:1001BC00184600F0CDF95E4B01221A60B4E0002223
:1001CC004FF480715B4801F045FB01224FF4007144
:1001DC00584801F03FFB00224FF48061554801F074
:1001EC0039FB01224FF40061524801F033FB524BB2
:1001FC001A68524B83FB02139910D317C91A0B467A
:10020C009B000B445B00D11A084600F03BFB4C4BA7
:10021C001A684A4B83FB02139910D317C91A0B4661
:10022C009B000B445B00D11A084600F091F9404B3F
:10023C0000221A6078E03D4B1B68022B74D13C4BBA
:10024C001B68002B02D0012B32D06DE001224FF441
:10025C008071384801F0FEFA00224FF400713548E5
:10026C0001F0F8FA01224FF48061324801F0F2FA01
:10027C0000224FF400612F4801F0ECFA2E4B1B6862
:10028C002E4A82FB03129210DB17D31A184600F089
:10029C00F9FA2C4B1B68294A82FB03129210DB17CC
:1002AC00D31A184600F054F9214B01221A603BE096
:1002BC0000224FF480711F4801F0CCFA01224FF458
:1002CC0000711C4801F0C6FA00224FF480611948F5
:1002DC0001F0C0FA01224FF40061164801F0BAFA9D
:1002EC00154B1A68154B83FB02139910D317C91AB7
:1002FC000B469B000B445B00D11A084600F0C2FA77
:10030C00104B1A680D4B83FB02139910D317C91AA3
:10031C000B469B000B445B00D11A084600F018F901
:10032C00034B00221A6000BF00BF80BD6C00002090
:10033C0068000020000801405C00002067666666CB
:10034C00600000206400002080B500AF754B1B6876
:10035C00042B00F2DB8001A252F823F07D0300088D
:10036C00AF0300081D04000899040008D904000814
:10037C00032000F0A5FE032000F0FEFE6A4B1B6874
:10038C006A4A1360684B5B68694A1360664B9B68EA
:10039C00684A1360634B01221A60642000F084FDEC
:1003AC00BDE0002000F08CFE012000F0E5FE624B69
:1003BC001B68012B04D1232000F062FDFFF7C0FE67
:1003CC005E4B1B68012B17D1642000F06DFD574B61
:1003DC001B68013B554A1360554B1B68013B544A43
:1003EC001360534B1B68002B06DC4E4B02221A6029
:1003FC004D4B5B684E4A1360514B1B68012B40F010
:10040C0087804F4B00221A60464B0B221A607FE00C
:10041C00002000F055FE022000F0AEFE464B1B689B
:10042C00012B04D1232000F02BFDFFF789FE434B59
:10043C001B68012B1FD1642000F036FD3B4B1B6861
:10044C00013B3A4A13603B4B1B68013B394A136032
:10045C00364B1B68002B03D0364B1B68002B0AD184
:10046C00304B03221A60304B1B68304A13602E4B02
:10047C009B68304A1360324B1B68012B4AD1304BBE
:10048C0000221A60274B0B221A6043E0012000F077
:10049C0017FE002000F070FE2A4B1B68012B0AD1BE
:1004AC00294B1B68642202FB03F3184600F0D4FCB2
:1004BC001C4B04221A60224B1B68012B2CD1204BA5
:1004CC0000221A60174B0B221A6025E0022000F064
:1004DC00F7FD002000F050FE1A4B1B68012B0AD1CF
:1004EC001A4B1B68642202FB03F3184600F0B4FCA1
:1004FC000C4B01221A60124B1B68012B0ED1104BB6
:10050C0000221A60074B0B221A6007E000BF06E0BE
:10051C0000BF04E000BF02E000BF00E000BF00BF6E
:10052C0080BD00BF6C000020000000205C0000209B
:10053C00600000206400002018000020C40000208F
:10054C005000002014000020100000200C0000209F
:10055C0080B582B000AF78607B68092B00F28A818D
:10056C0001A252F823F000BF9D050008E705000822
:10057C00310600087B060008C50600080F070008B6
:10058C0059070008A3070008ED0700083708000802
:10059C0000220421BA4801F05DF900220821B84874
:1005AC0001F058F900221021B54801F053F900224E
:1005BC002021B34801F04EF900224021B04801F04F
:1005CC0049F900228021AE4801F044F901224FF490
:1005DC008071AB4801F03EF94DE101220421A8489D
:1005EC0001F038F900220821A54801F033F9002266
:1005FC001021A34801F02EF901222021A04801F07E
:10060C0029F9012240219E4801F024F90122802180
:10061C009B4801F01FF901224FF48071984801F0BA
:10062C0019F928E100220421954801F013F9002260
:10063C000821934801F00EF901221021904801F095
:10064C0009F9002220218E4801F004F900224021F2
:10065C008B4801F0FFF801228021894801F0FAF85B
:10066C0000224FF48071864801F0F4F803E1002277
:10067C000421834801F0EEF800220821804801F0A3
:10068C00E9F8002210217E4801F0E4F80022202134
:10069C007B4801F0DFF801224021794801F0DAF8BB
:1006AC0001228021764801F0D5F800224FF48071A8
:1006BC00734801F0CFF8DEE001220421704801F00C
:1006CC00C9F8002208216E4801F0C4F8002210215C
:1006DC006B4801F0BFF801222021694801F0BAF8FB
:1006EC0001224021664801F0B5F8002280216448BF
:1006FC0001F0B0F800224FF48071614801F0AAF8C3
:10070C00B9E0002204215E4801F0A4F8012208217E
:10071C005B4801F09FF800221021594801F09AF82B
:10072C0000222021564801F095F80122402154481E
:10073C0001F090F800228021514801F08BF8002242
:10074C004FF480714E4801F085F894E000220421AA
:10075C004B4801F07FF801220821494801F07AF852
:10076C0000221021464801F075F80022202144484F
:10077C0001F070F800224021414801F06BF8002292
:10078C0080213F4801F066F800224FF480713C480C
:10079C0001F060F86FE000220421394801F05AF8AA
:1007AC0000220821364801F055F800221021344867
:1007BC0001F050F801222021314801F04BF80122C0
:1007CC0040212F4801F046F8012280212C4801F0ED
:1007DC0041F801224FF48071294801F03BF84AE0BE
:1007EC0000220421264801F035F800220821244873
:1007FC0001F030F800221021214801F02BF80022E2
:10080C0020211F4801F026F8002240211C4801F04D
:10081C0021F8002280211A4801F01CF800224FF424
:10082C008071174801F016F825E0002204211448C5
:10083C0001F010F800220821114801F00BF80022F9
:10084C0010210F4801F006F8002220210C4801F07D
:10085C0001F8012240210A4800F0FCFF002280210F
:10086C00074800F0F7FF00224FF48071044800F0B5
:10087C00F1FF00E000BF00BF0837BD4680BD00BFE0
:10088C00000C014080B582B000AF78607B68092B0A
:10089C0000F2C88101A252F823F000BFD108000871
:1008AC00270900087D090008D3090008290A000857
:1008BC007F0A0008D50A00082B0B0008810B0008E2
:1008CC00D70B000800224FF40071D54800F0C2FF8E
:1008DC0000224FF48061D24800F0BCFF00224FF49C
:1008EC000061CF4800F0B6FF00224FF48051CC4895
:1008FC0000F0B0FF00224FF40051C94800F0AAFFED
:10090C0000224FF48041C64800F0A4FF01224FF4AE
:10091C000041C34800F09EFF85E101224FF40071B5
:10092C00BF4800F097FF00224FF48061BC4800F0F4
:10093C0091FF00224FF40061B94800F08BFF0122B7
:10094C004FF48051B64800F085FF01224FF400515E
:10095C00B34800F07FFF01224FF48041B04800F013
:10096C0079FF01224FF40041AD4800F073FF5AE1CA
:10097C0000224FF40071AA4800F06CFF00224FF4E3
:10098C008061A74800F066FF01224FF40061A44883
:10099C0000F060FF00224FF48051A14800F05AFF94
:1009AC0000224FF400519E4800F054FF01224FF4F6
:1009BC0080419B4800F04EFF00224FF400419848C4
:1009CC0000F048FF2FE100224FF40071944800F032
:1009DC0041FF00224FF48061914800F03BFF002260
:1009EC004FF400618E4800F035FF00224FF4805127
:1009FC008B4800F02FFF01224FF40051884800F083
:100A0C0029FF01224FF48041854800F023FF00228A
:100A1C004FF40041824800F01DFF04E101224FF425
:100A2C0000717F4800F016FF00224FF480617C4873
:100A3C0000F010FF00224FF40061794800F00AFF2B
:100A4C0001224FF48051764800F004FF01224FF44C
:100A5C000051734800F0FEFE00224FF480417048B4
:100A6C0000F0F8FE00224FF400416D4800F0F2FE59
:100A7C00D9E000224FF40071694800F0EBFE01222E
:100A8C004FF48061664800F0E5FE00224FF40061EF
:100A9C00634800F0DFFE00224FF48051604800F004
:100AAC00D9FE01224FF400515D4800F0D3FE002224
:100ABC004FF480415A4800F0CDFE00224FF4004123
:100ACC00574800F0C7FEAEE000224FF400715448C6
:100ADC0000F0C0FE01224FF48061514800F0BAFED4
:100AEC0000224FF400614E4800F0B4FE00224FF497
:100AFC0080514B4800F0AEFE00224FF400514848A4
:100B0C0000F0A8FE00224FF48041454800F0A2FE00
:100B1C0000224FF40041424800F09CFE83E000228A
:100B2C004FF400713E4800F095FE00224FF48061B6
:100B3C003B4800F08FFE00224FF40061384800F073
:100B4C0089FE01224FF48051354800F083FE0122CA
:100B5C004FF40051324800F07DFE01224FF48041E9
:100B6C002F4800F077FE01224FF400412C4800F092
:100B7C0071FE58E000224FF40071294800F06AFE23
:100B8C0000224FF48061264800F064FE00224FF4EE
:100B9C000061234800F05EFE00224FF48051204893
:100BAC0000F058FE00224FF400511D4800F052FE98
:100BBC0000224FF480411A4800F04CFE00224FF402
:100BCC000041174800F046FE2DE000224FF4007162
:100BDC00134800F03FFE00224FF48061104800F0F3
:100BEC0039FE00224FF400610D4800F033FE002264
:100BFC004FF480510A4800F02DFE01224FF40051B1
:100C0C00074800F027FE00224FF48041044800F012
:100C1C0021FE00224FF40041014800F01BFE02E0CF
:100C2C00000C014000BF00BF0837BD4680BD00BFAF
:100C3C0080B500AF00F022FB00F012F800F098F83D
:100C4C0000F04AF8044801F04BFA044B00221A60F9
:100C5C00FFF77AFBFCE700BF700000206C0000205F
:100C6C0080B590B000AF07F1180328220021184678
:100C7C0001F0C2FD3B1D00221A605A609A60DA60D6
:100C8C001A610223BB610123BB621023FB620023A8
:100C9C007B6307F11803184600F0F4FD0346002BA4
:100CAC0001D000F0D3F80F237B600023BB6000233E
:100CBC00FB6000233B6100237B613B1D0021184638
:100CCC0001F062F80346002B01D000F0BFF800BF22
:100CDC004037BD4680BD000080B586B000AF07F13F
:100CEC00080300221A605A609A60DA603B460022C0
:100CFC001A605A601D4B4FF080421A601B4B41F634
:100D0C003F725A60194B00229A60184B0922DA6024
:100D1C00164B00221A61154B00229A61134801F000
:100D2C008FF90346002B01D000F090F84FF480535C
:100D3C00BB6007F1080319460C4801F00DFB034694
:100D4C00002B01D000F082F800233B6000237B6075
:100D5C003B461946054801F0E5FC0346002B01D043
:100D6C0000F074F800BF1837BD4680BD700000203D
:100D7C0080B586B000AF07F1080300221A605A60F4
:100D8C009A60DA60294B9B69284A43F0040393610B
:100D9C00264B9B6903F004037B607B68234B9B69A8
:100DAC00224A43F008039361204B9B6903F008032C
:100DBC003B603B68002240F6FE711D4800F04AFD86
:100DCC0000224FF6FC711B4800F044FD40F6FE7308
:100DDC00BB600123FB6000233B6102237B6107F1B5
:100DEC0008031946124800F0B9FB4FF6FC73BB60C0
:100DFC000123FB6000233B6102237B6107F10803A5
:100E0C0019460C4800F0AAFB4FF46043BB6000236A
:100E1C00FB6001233B6107F108031946044800F00D
:100E2C009DFB00BF1837BD4680BD00BF00100240BF
:100E3C0000080140000C014080B582B000AF786022
:100E4C0000F046F800BF0837BD4680BD80B400AF47
:100E5C0072B600BFFEE7000080B483B000AF7860CC
:100E6C00054A7B681360054B00221A6000BF0C37E3
:100E7C00BD4680BC704700BFB800002014000020A5
:100E8C0080B483B000AF7860054A7B681360054B73
:100E9C0000221A6000BF0C37BD4680BC704700BFF3
:100EAC00BC0000201800002080B483B000AF786034
:100EBC00054A7B681360054B00221A6000BF0C3793
:100ECC00BD4680BC704700BF20000020C40000203D
:100EDC0080B400AF294B1B68002B0BDD274B1B6824
:100EEC00013B264A1360254B1B68002B02DC244B6C
:100EFC0001221A60234B1B68002B0BDD214B1B6856
:100F0C00013B204A13601F4B1B68002B02DC1E4B5D
:100F1C0001221A601D4B1B68002B0BDD1B4B1B6841
:100F2C00013B1A4A1360194B1B68002B02DC184B4F
:100F3C0001221A60174B1B68002B0BDD154B1B682D
:100F4C00013B144A1360134B1B68002B02DC124B41
:100F5C0001221A60114B1B68002B0BDD0F4B1B6819
:100F6C00013B0E4A13600D4B1B68002B02DC0C4B33
:100F7C0001221A6000BFBD4680BC7047B80000203B
:100F8C0014000020BC00002018000020C00000202D
:100F9C001C00002020000020C400002024000020A1
:100FAC00C800002080B485B000AF154B9B69144A73
:100FBC0043F001039361124B9B6903F00103BB6087
:100FCC00BB680F4BDB690E4A43F08053D3610C4B6B
:100FDC00DB6903F080537B607B680A4B5B68FB60CA
:100FEC00FB6823F0E063FB60FB6843F08063FB600D
:100FFC00044AFB68536000BF1437BD4680BC704781
:10100C00001002400000014080B584B000AF786051
:10101C007B681B68B3F1804F13D10C4BDB690B4A17
:10102C0043F00103D361094BDB6903F00103FB605F
:10103C00FB68002200211C2000F059FA1C2000F053
:10104C0072FA00BF1037BD4680BD00BF00100240D1
:10105C0080B400AFFEE780B400AFFEE780B400AF11
:10106C00FEE780B400AFFEE780B400AFFEE780B4CB
:10107C0000AF00BFBD4680BC704780B400AF00BF5E
:10108C00BD4680BC704780B400AF00BFBD4680BC7D
:10109C00704780B500AF00F037F900BF80BD00008D
:1010AC0080B500AF024801F067F800BF80BD00BFFB
:1010BC007000002080B400AF00BFBD4680BC7047FC
:1010CC0080B582B000AF0346FB71FB79032B4BD884
:1010DC0001A252F823F000BFF5100008151100080A
:1010EC00351100085511000800221021214800F08C
:1010FC00B1FB012204211F4800F0ACFB01220821A6
:10110C001C4800F0A7FB30E001221021194800F028
:10111C00A1FB00220421174800F09CFB01220821AE
:10112C00144800F097FB20E001221021114800F038
:10113C0091FB012204210F4800F08CFB00220821B6
:10114C000C4800F087FB10E001221021094800F048
:10115C0081FB01220421074800F07CFB01220821BD
:10116C00044800F077FB00E000BF00BF0837BD4625
:10117C0080BD00BF0008014080B582B000AF0346BF
:10118C00FB71FB79032B4BD801A252F823F000BF63
:10119C00AD110008CD110008ED1100080D1200086A
:1011AC0000228021214800F055FB012220211F48FC
:1011BC0000F050FB012240211C4800F04BFB30E0BA
:1011CC0001228021194800F045FB002220211748FC
:1011DC0000F040FB01224021144800F03BFB20E0D2
:1011EC0001228021114800F035FB012220210F48FB
:1011FC0000F030FB002240210C4800F02BFB10E0EB
:10120C0001221021094800F025FB01220421074886
:10121C0000F020FB01220821044800F01BFB00E039
:10122C0000BF00BF0837BD4680BD00BF00080140AD
:10123C00FFF740FF0B480C490C4A002302E0D4583E
:10124C00C4500433C4188C42F9D3094A094C002306
:10125C0001E013600432A242FBD301F0D5FAFFF790
:10126C00E7FC70470000002034000020A028000894
:10127C0034000020D0000020FEE7000080B500AF55
:10128C00084B1B68074A43F010031360032000F05F
:10129C0023F90F2000F008F8FFF784FE002318460E
:1012AC0080BD00BF0020024080B582B000AF7860E6
:1012BC00124B1A68124B1B7819464FF47A73B3FB16
:1012CC00F1F3B2FBF3F3184600F03BF90346002BA5
:1012DC0001D001230EE07B680F2B0AD8002279681D
:1012EC004FF0FF3000F003F9064A7B6813600023CF
:1012FC0000E0012318460837BD4680BD28000020B9
:10130C00300000202C00002080B400AF054B1B786F
:10131C001A46054B1B681344034A136000BFBD46B5
:10132C0080BC704730000020CC00002080B400AF9F
:10133C00024B1B681846BD4680BC7047CC00002091
:10134C0080B485B000AF78607B6803F00703FB6066
:10135C000C4BDB68BB60BA684FF6FF031340BB60F5
:10136C00FB681A02BB68134343F0BF6343F40033BA
:10137C00BB60044ABB68D36000BF1437BD4680BC59
:10138C00704700BF00ED00E080B400AF044BDB6899
:10139C001B0A03F007031846BD4680BC704700BF0C
:1013AC0000ED00E080B483B000AF0346FB7197F909
:1013BC000730002B0BDBFB7903F01F02064997F972
:1013CC0007305B09012000FA02F241F8232000BF2C
:1013DC000C37BD4680BC704700E100E080B483B0A0
:1013EC0000AF03463960FB7197F90730002B0ADB1D
:1013FC003B68DAB20C4997F907301201D2B20B44B0
:10140C0083F800230AE03B68DAB20849FB7903F061
:10141C000F03043B1201D2B20B441A7600BF0C37F7
:10142C00BD4680BC704700BF00E100E000ED00E06D
:10143C0080B489B000AFF860B9607A60FB6803F0E3
:10144C000703FB61FB69C3F10703042B28BF0423CB
:10145C00BB61FB690433062B02D9FB69033B00E03B
:10146C0000237B614FF0FF32BB6902FA03F3DA43CE
:10147C00BB681A407B699A404FF0FF317B6901FAD7
:10148C0003F3D9437B680B40134318462437BD46FE
:10149C0080BC704780B582B000AF78607B68013B40
:1014AC00B3F1807F01D301230FE00A4A7B68013B33
:1014BC0053600F214FF0FF30FFF790FF054B0022D8
:1014CC009A60044B07221A60002318460837BD4661
:1014DC0080BD00BF10E000E080B582B000AF786046
:1014EC007868FFF72DFF00BF0837BD4680BD80B57B
:1014FC0086B000AF0346B9607A60FB7300237B6152
:10150C00FFF742FF78617A68B9687869FFF790FF56
:10151C00024697F90F3011461846FFF75FFF00BFE0
:10152C001837BD4680BD80B582B000AF0346FB7155
:10153C0097F907301846FFF735FF00BF0837BD464F
:10154C0080BD80B582B000AF78607868FFF7A2FFED
:10155C00034618460837BD4680BD000080B48BB0EA
:10156C0000AF7860396000237B6200233B6261E14D
:10157C0001227B6A02FA03F3FB613B681B68FA6980
:10158C001340BB61BA69FB699A4240F050813B68D9
:10159C005B68974A93425ED0954A934275D8954AB8
:1015AC00934258D0934A93426FD8934A934252D065
:1015BC00914A934269D8914A93424CD08F4A9342B4
:1015CC0063D88F4A934246D08D4A93425DD8122BF2
:1015DC002AD8122B59D801A252F823F0631600080E
:1015EC003D1600084F1600089116000897160008C3
:1015FC00971600089716000897160008971600080B
:10160C0097160008971600089716000897160008FA
:10161C0097160008971600089716000897160008EA
:10162C004516000859160008764A934213D02CE050
:10163C003B68DB683B6229E03B68DB6804333B6258
:10164C0024E03B68DB6808333B621FE03B68DB68E7
:10165C000C333B621AE03B689B68002B02D10423DD
:10166C003B6213E03B689B68012B05D108233B626E
:10167C007B68FA691A6109E008233B627B68FA69A6
:10168C005A6103E000233B6200E000BFBB69FF2B03
:10169C0001D87B6801E07B6804337B61BB69FF2B5D
:1016AC0002D87B6A9B0002E07B6A083B9B003B6193
:1016BC007B691A680F213B6901FA03F3DB431A407B
:1016CC00396A3B6901FA03F31A437B691A603B6878
:1016DC005B6803F08053002B00F0A9804A4B9B6998
:1016EC00494A43F001039361474B9B6903F00103A3
:1016FC00BB60BB68454A7B6A9B08023352F82330B7
:10170C00FB607B6A03F003039B000F2202FA03F3D6
:10171C00DB43FA681340FB607B683D4A93420DD073
:10172C007B683C4A934207D07B683B4A934201D189
:10173C00022304E0032302E0012300E000237A6A81
:10174C0002F0030292009340FA681343FB602F49A6
:10175C007B6A9B080233FA6841F823203B685B687C
:10176C0003F48013002B06D02C4B9A682B49BB69D1
:10177C0013438B6006E0294B9A68BB69DB4327490E
:10178C0013408B603B685B6803F40013002B06D09E
:10179C00224BDA682149BB691343CB6006E01F4B2F
:1017AC00DA68BB69DB431D491340CB603B685B685F
:1017BC0003F40033002B06D0184B5A681749BB6949
:1017CC0013434B6006E0154B5A68BB69DB43134966
:1017DC0013404B603B685B6803F48033002B1FD0D5
:1017EC000E4B1A680D49BB6913430B601FE000BF19
:1017FC0000003210000031100000221000002110F7
:10180C0000001210000011100010024000000140F6
:10181C0000080140000C0140001001400004014090
:10182C000B4B1A68BB69DB43094913400B607B6A9D
:10183C0001337B623B681A687B6A22FA03F3002B44
:10184C007FF496AE00BF00BF2C37BD4680BC7047FE
:10185C000004014080B483B000AF78600B467B80FD
:10186C0013467B707B78002B03D07A887B681A61D7
:10187C0003E07B881A047B681A6100BF0C37BD46F5
:10188C0080BC704780B586B000AF78607B68002B59
:10189C0001D1012372E27B681B6803F00103002B6A
:1018AC0000F08780924B5B6803F00C03042B0CD088
:1018BC008F4B5B6803F00C03082B12D18C4B5B68CD
:1018CC0003F48033B3F5803F0BD1894B1B6803F4D1
:1018DC000033002B6CD07B685B68002B68D1012334
:1018EC004CE27B685B68B3F5803F06D1804B1B688C
:1018FC007F4A43F4803313602EE07B685B68002BD7
:10190C000CD17B4B1B687A4A23F480331360784BE1
:10191C001B68774A23F4802313601DE07B685B68A7
:10192C00B3F5A02F0CD1724B1B68714A43F4802382
:10193C0013606F4B1B686E4A43F4803313600BE0EB
:10194C006B4B1B686A4A23F480331360684B1B682B
:10195C00674A23F4802313607B685B68002B13D0E9
:10196C00FFF7E4FC386108E0FFF7E0FC02463B6956
:10197C00D31A642B01D9032300E25D4B1B6803F4DB
:10198C000033002BF0D014E0FFF7D0FC386108E0F6
:10199C00FFF7CCFC02463B69D31A642B01D9032315
:1019AC00ECE1534B1B6803F40033002BF0D100E047
:1019BC0000BF7B681B6803F00203002B63D04C4B09
:1019CC005B6803F00C03002B0BD0494B5B6803F0F6
:1019DC000C03082B1CD1464B5B6803F48033002BA3
:1019EC0016D1434B1B6803F00203002B05D07B6818
:1019FC001B69012B01D00123C0E13D4B1B6823F077
:101A0C00F8027B685B69DB00394913430B603AE0F1
:101A1C007B681B69002B20D0364B01221A60FFF724
:101A2C0085FC386108E0FFF781FC02463B69D31A5C
:101A3C00022B01D90323A1E12D4B1B6803F00203F8
:101A4C00002BF0D02A4B1B6823F0F8027B685B69F3
:101A5C00DB00274913430B6015E0264B00221A606C
:101A6C00FFF764FC386108E0FFF760FC02463B6955
:101A7C00D31A022B01D9032380E11D4B1B6803F001
:101A8C000203002BF0D17B681B6803F00803002BCA
:101A9C003AD07B689B69002B19D0174B01221A6036
:101AAC00FFF744FC386108E0FFF740FC02463B6955
:101ABC00D31A022B01D9032360E10D4B5B6A03F0AF
:101ACC000203002BF0D0012000F09CFA1CE00A4B22
:101ADC0000221A60FFF72AFC38610FE0FFF726FCA2
:101AEC0002463B69D31A022B08D9032346E100BFF7
:101AFC00001002400000424280044242924B5B6A5A
:101B0C0003F00203002BE9D17B681B6803F004038C
:101B1C00002B00F0A6800023FB758B4BDB6903F0D8
:101B2C008053002B0DD1884BDB69874A43F08053DF
:101B3C00D361854BDB6903F08053BB60BB68012329
:101B4C00FB75824B1B6803F48073002B18D17F4B01
:101B5C001B687E4A43F480731360FFF7E7FB386120
:101B6C0008E0FFF7E3FB02463B69D31A642B01D96B
:101B7C00032303E1754B1B6803F48073002BF0D037
:101B8C007B68DB68012B06D16F4B1B6A6E4A43F0F6
:101B9C00010313622DE07B68DB68002B0CD16A4BD0
:101BAC001B6A694A23F001031362674B1B6A664A7E
:101BBC0023F0040313621CE07B68DB68052B0CD15B
:101BCC00614B1B6A604A43F0040313625E4B1B6A51
:101BDC005D4A43F0010313620BE05B4B1B6A5A4AEC
:101BEC0023F001031362584B1B6A574A23F004037A
:101BFC0013627B68DB68002B15D0FFF797FB38610D
:101C0C000AE0FFF793FB02463B69D31A41F2883294
:101C1C00934201D90323B1E04B4B1B6A03F002033F
:101C2C00002BEED014E0FFF781FB38610AE0FFF7E0
:101C3C007DFB02463B69D31A41F28832934201D9AB
:101C4C0003239BE0404B1B6A03F00203002BEED1F5
:101C5C00FB7D012B05D13C4BDB693B4A23F08053C8
:101C6C00D3617B68DB69002B00F08780364B5B68A7
:101C7C0003F00C03082B61D07B68DB69022B46D187
:101C8C00334B00221A60FFF751FB386108E0FFF775
:101C9C004DFB02463B69D31A022B01D903236DE09D
:101CAC00294B1B6803F00073002BF0D17B681B6A77
:101CBC00B3F5803F08D1244B5B6823F400327B687A
:101CCC009B68214913434B601F4B5B6823F47412D0
:101CDC007B68196A7B685B6A0B431B4913434B6037
:101CEC001B4B01221A60FFF721FB386108E0FFF75C
:101CFC001DFB02463B69D31A022B01D903233DE09D
:101D0C00114B1B6803F00073002BF0D035E0104B27
:101D1C0000221A60FFF70AFB386108E0FFF706FBA8
:101D2C0002463B69D31A022B01D9032326E0064B4A
:101D3C001B6803F00073002BF0D11EE07B68DB699D
:101D4C00012B07D1012319E0001002400070004064
:101D5C00600042420B4B5B68FB60FB6803F4803213
:101D6C007B681B6A9A4206D1FB6803F470127B688D
:101D7C005B6A9A4201D0012300E000231846183711
:101D8C00BD4680BD0010024080B584B000AF7860C5
:101D9C0039607B68002B01D10123D0E06A4B1B68B2
:101DAC0003F007033A689A4210D9674B1B6823F07B
:101DBC00070265493B6813430B60634B1B6803F0D8
:101DCC0007033A689A4201D00123B8E07B681B688C
:101DDC0003F00203002B20D07B681B6803F0040384
:101DEC00002B05D0594B5B68584A43F4E0635360B1
:101DFC007B681B6803F00803002B05D0534B5B6812
:101E0C00524A43F460535360504B5B6823F0F0022A
:101E1C007B689B684D4913434B607B681B6803F0E0
:101E2C000103002B40D07B685B68012B07D1474B2B
:101E3C001B6803F40033002B15D101237FE07B6872
:101E4C005B68022B07D1414B1B6803F00073002B1E
:101E5C0009D1012373E03D4B1B6803F00203002BF7
:101E6C0001D101236BE0394B5B6823F003027B68E3
:101E7C005B68364913434B60FFF758FAF8600AE089
:101E8C00FFF754FA0246FB68D31A41F288329342A8
:101E9C0001D9032353E02D4B5B6803F00C027B68E4
:101EAC005B689B009A42EBD1274B1B6803F007033E
:101EBC003A689A4210D2244B1B6823F0070222493D
:101ECC003B6813430B60204B1B6803F007033A6815
:101EDC009A4201D0012332E07B681B6803F00403B3
:101EEC00002B08D0194B5B6823F4E0627B68DB683D
:101EFC00164913434B607B681B6803F00803002BE7
:101F0C0009D0124B5B6823F460527B681B69DB00C1
:101F1C000E4913434B6000F021F802460B4B5B68F3
:101F2C001B0903F00F030A49CB5C22FA03F3094A9D
:101F3C001360094B1B681846FFF7B6F900231846C7
:101F4C001037BD4680BD00BF00200240001002408B
:101F5C0074280008280000202C00002080B487B0D2
:101F6C0000AF0023FB600023BB6000237B610023D8
:101F7C007B6000233B611E4B5B68FB60FB6803F0DE
:101F8C000C03042B02D0082B03D027E0194B3B6128
:101F9C0027E0FB689B0C03F00F03174AD35C7B60B4
:101FAC00FB6803F48033002B10D0114B5B685B0C87
:101FBC0003F00103114AD35CBB607B680D4A03FB41
:101FCC0002F2BB68B2FBF3F37B6104E07B680C4A62
:101FDC0002FB03F37B617B693B6102E0054B3B61D8
:101FEC0000BF3B6918461C37BD4680BC704700BF1C
:101FFC000010024000127A0084280008942800087F
:10200C0000093D0080B485B000AF78600A4B1B68B6
:10201C000A4AA2FB03235B0A7A6802FB03F3FB6008
:10202C0000BFFB685A1EFA60002BF9D100BF00BF3D
:10203C001437BD4680BC704728000020D34D621079
:10204C0080B582B000AF78607B68002B01D1012392
:10205C0041E07B6893F83D30DBB2002B06D17B6806
:10206C00002283F83C207868FEF7CEFF7B680222C2
:10207C0083F83D207B681A687B6804331946104648
:10208C0000F056FA7B68012283F846207B68012217
:10209C0083F83E207B68012283F83F207B68012275
:1020AC0083F840207B68012283F841207B68012261
:1020BC0083F842207B68012283F843207B6801224D
:1020CC0083F844207B68012283F845207B68012239
:1020DC0083F83D20002318460837BD4680BD00001C
:1020EC0080B485B000AF78607B6893F83D30DBB28C
:1020FC00012B01D0012335E07B68022283F83D20BF
:10210C007B681B68DA687B681B6842F00102DA6046
:10211C007B681B68164A934209D07B681B68B3F135
:10212C00804F04D07B681B68124A934211D17B68A4
:10213C001B689B6803F00703FB60FB68062B10D041
:10214C007B681B681A687B681B6842F001021A6086
:10215C0007E07B681B681A687B681B6842F0010209
:10216C001A60002318461437BD4680BC704700BF68
:10217C00002C01400004004080B584B000AF7860B2
:10218C007B681B68DB68FB607B681B681B69BB603A
:10219C00BB6803F00203002B20D0FB6803F00203A2
:1021AC00002B1BD07B681B686FF002021A617B68E6
:1021BC0001221A777B681B689B6903F00303002BD1
:1021CC0003D0786800F098F905E0786800F08BF996
:1021DC00786800F09AF97B6800221A77BB6803F0E4
:1021EC000403002B20D0FB6803F00403002B1BD04E
:1021FC007B681B686FF004021A617B6802221A77F5
:10220C007B681B689B6903F44073002B03D07868D0
:10221C0000F072F905E0786800F065F9786800F074
:10222C0074F97B6800221A77BB6803F00803002B53
:10223C0020D0FB6803F00803002B1BD07B681B68C5
:10224C006FF008021A617B6804221A777B681B689E
:10225C00DB6903F00303002B03D0786800F04CF922
:10226C0005E0786800F03FF9786800F04EF97B687B
:10227C0000221A77BB6803F01003002B20D0FB68F8
:10228C0003F01003002B1BD07B681B686FF010024F
:10229C001A617B6808221A777B681B68DB6903F478
:1022AC004073002B03D0786800F026F905E07868BD
:1022BC0000F019F9786800F028F97B6800221A7789
:1022CC00BB6803F00103002B0CD0FB6803F0010387
:1022DC00002B07D07B681B686FF001021A617868CD
:1022EC00FEF7AAFDBB6803F08003002B0CD0FB6843
:1022FC0003F08003002B07D07B681B686FF0800213
:10230C001A61786800F06FFABB6803F04003002B89
:10231C000CD0FB6803F04003002B07D07B681B68D4
:10232C006FF040021A61786800F0F8F8BB6803F0AF
:10233C002003002B0CD0FB6803F02003002B07D0EC
:10234C007B681B686FF020021A61786800F042FA13
:10235C0000BF1037BD4680BD80B584B000AF78603B
:10236C0039600023FB737B6893F83C30012B01D15F
:10237C000223B4E07B68012283F83C207B680222B4
:10238C0083F83D207B681B689B68BB60BB6823F0AF
:10239C007703BB60BB6823F47F43BB607B681B681F
:1023AC00BA689A603B681B68B3F5005F3ED0B3F522
:1023BC00005F00F28780B3F5805F00F08680B3F594
:1023CC00805F7FD8702B1AD0702B7BD8602B50D0AD
:1023DC00602B77D8502B3CD0502B73D8402B58D037
:1023EC00402B6FD8302B64D0302B6BD8202B60D087
:1023FC00202B67D8002B5CD0102B5AD062E07B6866
:10240C0018683B6899683B685A683B68DB6800F061
:10241C006AF97B681B689B68BB60BB6843F07703F9
:10242C00BB607B681B68BA689A604FE07B68186871
:10243C003B6899683B685A683B68DB6800F053F965
:10244C007B681B689A687B681B6842F480429A60C0
:10245C003CE07B6818683B6859683B68DB681A4647
:10246C0000F0CAF87B681B685021184600F021F96F
:10247C002CE07B6818683B6859683B68DB681A4637
:10248C0000F0E8F87B681B686021184600F011F931
:10249C001CE07B6818683B6859683B68DB681A4627
:1024AC0000F0AAF87B681B684021184600F001F97F
:1024BC000CE07B681A683B681B681946104600F0F4
:1024CC00F8F803E00123FB7300E000BF7B680122F6
:1024DC0083F83D207B68002283F83C20FB7B184668
:1024EC001037BD4680BD80B483B000AF786000BFAC
:1024FC000C37BD4680BC704780B483B000AF7860A9
:10250C0000BF0C37BD4680BC704780B483B000AFB1
:10251C00786000BF0C37BD4680BC704780B483B078
:10252C0000AF786000BF0C37BD4680BC7047000020
:10253C0080B485B000AF786039607B681B68FB6045
:10254C007B682B4A934207D07B68B3F1804F03D052
:10255C007B68284A934208D1FB6823F07003FB6028
:10256C003B685B68FA681343FB607B68204A9342C4
:10257C0007D07B68B3F1804F03D07B681D4A934230
:10258C0008D1FB6823F44073FB603B68DB68FA6896
:10259C001343FB60FB6823F080023B685B691343C9
:1025AC00FB607B68FA681A603B689A687B68DA6241
:1025BC003B681A687B689A627B680D4A934203D128
:1025CC003B681A697B681A637B6801225A617B68D5
:1025DC001B6903F00103002B05D07B681B6923F0FA
:1025EC0001027B681A6100BF1437BD4680BC70477E
:1025FC00002C01400004004080B487B000AFF860AC
:10260C00B9607A60FB681B6A7B61FB681B6A23F00C
:10261C000102FB681A62FB689B693B613B6923F012
:10262C00F0033B617B681B013A6913433B617B6997
:10263C0023F00A037B617A69BB6813437B61FB68F7
:10264C003A699A61FB687A691A6200BF1C37BD4609
:10265C0080BC704780B487B000AFF860B9607A6016
:10266C00FB681B6A7B61FB681B6A23F01002FB682A
:10267C001A62FB689B693B613B6923F470433B61C5
:10268C007B681B033A6913433B617B6923F0A0030E
:10269C007B61BB681B017A6913437B61FB683A69F8
:1026AC009A61FB687A691A6200BF1C37BD4680BC10
:1026BC00704780B485B000AF786039607B689B68E8
:1026CC00FB60FB6823F07003FB603A68FB68134304
:1026DC0043F00703FB607B68FA689A6000BF14370D
:1026EC00BD4680BC704780B487B000AFF860B9605D
:1026FC007A603B60FB689B687B617B6923F47F435A
:10270C007B613B681A027B681A43BB6813437A6986
:10271C0013437B61FB687A699A6000BF1C37BD4626
:10272C0080BC704780B485B000AF786039607B683E
:10273C0093F83C30012B01D1022341E07B6801224C
:10274C0083F83C207B68022283F83D207B681B6861
:10275C005B68FB607B681B689B68BB60FB6823F055
:10276C007003FB603B681B68FA681343FB607B6873
:10277C001B68FA685A607B681B68144A934209D03C
:10278C007B681B68B3F1804F04D07B681B68104AD0
:10279C0093420CD1BB6823F08003BB603B685B6841
:1027AC00BA681343BB607B681B68BA689A607B6825
:1027BC00012283F83D207B68002283F83C20002313
:1027CC0018461437BD4680BC704700BF002C014032
:1027DC000004004080B483B000AF786000BF0C37B9
:1027EC00BD4680BC704780B483B000AF786000BF3A
:1027FC000C37BD4680BC704703460244934200D15F
:10280C00704703F8011BF9E770B500260C4D0D4C11
:10281C00641BA410A64209D100F01AF800260A4D38
:10282C000A4C641BA410A64205D170BD55F8043B9C
:10283C0098470136EEE755F8043B98470136F2E726
:10284C009828000898280008982800089C28000858
:10285C00F8B500BFF8BC08BC9E467047F8B500BF81
:08286C00F8BC08BC9E46704751
:10287400000000000000000001020304060708092C
:1028840002030405060708090A0B0C0D0E0F1010AD
:04289400010200003D
:042898003101000802
:04289C000D01000822
:1028A000050000000300000002000000030000001B
:1028B0000200000001000000010000000100000013
:1028C000640000006400000000127A0010000000A4
:0428D0000100000003
:040000050800123DA0
:00000001FF
