:020000040800F2
:100000000028002015140008351200083B120008D3
:1000100041120008471200084D12000800000000BD
:100020000000000000000000000000005312000863
:100030005F120008000000006B1200087712000831
:100040005D1400085D1400085D1400085D140008CC
:100050005D1400085D1400085D1400085D140008BC
:100060005D1400085D1400085D1400085D140008AC
:100070005D1400085D1400085D1400085D1400089C
:100080005D1400085D1400085D1400085D1400088C
:100090005D1400085D1400085D1400085D1400087C
:1000A0005D1400085D1400085D1400085D1400086C
:1000B000851200085D140008000000005D140008AF
:1000C0005D14000800000000000000005D1400083E
:1000D000000000005D1400085D140008000000002E
:1000E0005D1400085D1400085D14000800000000A5
:1000F0000000000000000000000000000000000000
:0C01000000000000000000005FF808F1A3
:10010C0010B5054C237833B9044B13B10448AFF345
:10011C0000800123237010BD2C0000200000000083
:10012C00342A000808B5034B1BB103490348AFF34D
:10013C00008008BD0000000030000020342A0008B8
:10014C0080B500AFB84B1B68012B74D1B74B1B6843
:10015C00002B02D0012B32D0E2E100224FF480714F
:10016C00B34801F063FC01224FF40071B04801F078
:10017C005DFC00224FF48061AD4801F057FC012278
:10018C004FF40061AA4801F051FCAA4B1B68AA4A23
:10019C0082FB03129210DB17D31A184600F072FC84
:1001AC00A64B1B68A44A82FB03129210DB17D31ACE
:1001BC00184600F0CDFA9D4B01221A60B0E10122E5
:1001CC004FF480719A4801F031FC00224FF4007119
:1001DC00974801F02BFC01224FF48061944801F008
:1001EC0025FC00224FF40061914801F01FFC914B5B
:1001FC001A68914B83FB02139910D317C91A0B463B
:10020C009B000B445B00D11A084600F03BFC8B4B67
:10021C001A68894B83FB02139910D317C91A0B4622
:10022C009B000B445B00D11A084600F091FA7F4BFF
:10023C0000221A6074E17C4B1B68022B74D17B4B3F
:10024C001B68002B02D0012B32D069E100224FF445
:10025C008071774801F0EAFB01224FF40071744879
:10026C0001F0E4FB00224FF48061714801F0DEFBE9
:10027C0001224FF400616E4801F0D8FB6D4B1B68F6
:10028C006D4A82FB03129210DB17D31A184600F04A
:10029C00F9FB6B4B1B68684A82FB03129210DB174D
:1002AC00D31A184600F054FA604B01221A6037E159
:1002BC0001224FF480715E4801F0B8FB00224FF42C
:1002CC0000715B4801F0B2FB01224FF48061584889
:1002DC0001F0ACFB00224FF40061554801F0A6FB85
:1002EC00544B1A68544B83FB02139910D317C91A39
:1002FC000B469B000B445B00D11A084600F0C2FB76
:10030C004F4B1A684C4B83FB02139910D317C91A25
:10031C000B469B000B445B00D11A084600F018FA00
:10032C00424B00221A60FBE03F4B1B68032B74D13D
:10033C003E4B1B68002B02D0012B32D0F0E0002288
:10034C004FF480713A4801F071FB01224FF40071B7
:10035C00374801F06BFB00224FF48061344801F008
:10036C0065FB01224FF40061314801F05FFB334B18
:10037C001B68314A82FB03129210DB17D31A184602
:10038C0000F080FB2B4B1B682B4A82FB0312921054
:10039C00DB17D31A184600F0DBF9244B01221A6044
:1003AC00BEE001224FF48071214801F03FFB002296
:1003BC004FF400711E4801F039FB01224FF48061AB
:1003CC001B4801F033FB00224FF40061184801F088
:1003DC002DFB1A4B1A68184B83FB02139910D31779
:1003EC00C91A0B469B000B445B00D11A084600F05F
:1003FC0049FB104B1A68104B83FB02139910D3174F
:10040C00C91A0B469B000B445B00D11A084600F03E
:10041C009FF9064B00221A6082E0044B1B68002BEC
:10042C0010D0012B40D07BE058000020540000205D
:10043C000008014048000020676666664C000020FA
:10044C005000002000224FF48071364801F0EEFA83
:10045C0001224FF40071334801F0E8FA00224FF406
:10046C008061304801F0E2FA01224FF400612D481E
:10047C0001F0DCFA2C4B1B682C4A82FB0312921005
:10048C00DB17D31A184600F0FDFA294B1B68274AD4
:10049C0082FB03129210DB17D31A184600F058F99E
:1004AC00244B01221A603BE001224FF480711D485D
:1004BC0001F0BCFA00224FF400711A4801F0B6FAB0
:1004CC0001224FF48061174801F0B0FA00224FF47A
:1004DC000061144801F0AAFA134B1A68134B83FB02
:1004EC0002139910D317C91A0B469B000B445B00DF
:1004FC00D11A084600F0C6FA0D4B1A680B4B83FB59
:10050C0002139910D317C91A0B469B000B445B00BE
:10051C00D11A084600F01CF9064B00221A6000BFE5
:10052C0000BF80BD00080140500000206766666671
:10053C00480000205400002080B500AF7D4B1B68A4
:10054C00042B00F2EC8001A252F823F06D05000898
:10055C00A5050008010600086B060008C306000884
:10056C00032000F099FE032000F0F2FE724B1B6892
:10057C00724A1360704B5B68714A13606E4B9B68D8
:10058C00704A13606B4B01221A60642000F078FDF6
:10059C000A2000F061FDCBE0002000F07DFE012080
:1005AC0000F0D6FE684B1B68012B04D10A2000F02A
:1005BC0053FDFFF7C5FD654B1B68012B40F0B18067
:1005CC00642000F05DFD5D4B1B68013B5B4A1360D2
:1005DC005B4B1B68013B5A4A1360594B1B68002B41
:1005EC0000F39F80534B02221A60534B5B68544AB2
:1005FC00136096E0002000F04FFE022000F0A8FEF1
:10060C00514B1B68012B04D10A2000F025FDFFF78C
:10061C0097FD4E4B1B68012B40F08580642000F049
:10062C002FFD464B1B68013B444A1360454B1B682E
:10063C00013B444A1360414B1B68002B03D0414BD8
:10064C001B68002B6FD13B4B03221A603A4B1B6883
:10065C003A4A1360384B9B683A4A136063E00120B6
:10066C0000F01AFE002000F073FE374B1B68012BC4
:10067C0004D10A2000F0F0FCFFF762FD334B1B683D
:10068C00012B52D1642000F0FBFC2D4B1B68013B6D
:10069C002B4A1360294B1B68013B284A1360284BDB
:1006AC001B68002B41D1234B04221A60224B5B6840
:1006BC00234A136039E0022000F0EEFD002000F028
:1006CC0047FE214B1B68012B04D10A2000F0C4FC0F
:1006DC00FFF736FD1D4B1B68012B28D1642000F061
:1006EC00CFFC184B1B68013B164A1360134B1B685D
:1006FC00013B124A1360134B1B68002B03D00F4BAA
:10070C001B68002B13D10B4B01221A600A4B9B6800
:10071C000C4A1360084B1B68084A136007E000BFC3
:10072C0006E000BF04E000BF02E000BF00E000BF35
:10073C0000BF80BD580000200000002048000020B1
:10074C004C0000205000002010000020B0000020C1
:10075C0080B582B000AF78607B68092B00F28A818B
:10076C0001A252F823F000BF9D070008E70700081C
:10077C00310800087B080008C50800080F090008AC
:10078C0059090008A3090008ED090008370A0008F8
:10079C0000220421BA4801F049F900220821B84886
:1007AC0001F044F900221021B54801F03FF9002274
:1007BC002021B34801F03AF900224021B04801F061
:1007CC0035F900228021AE4801F030F901224FF4B6
:1007DC008071AB4801F02AF94DE101220421A848AF
:1007EC0001F024F900220821A54801F01FF900228C
:1007FC001021A34801F01AF901222021A04801F090
:10080C0015F9012240219E4801F010F901228021A6
:10081C009B4801F00BF901224FF48071984801F0CC
:10082C0005F928E100220421954801F0FFF8002287
:10083C000821934801F0FAF801221021904801F0A8
:10084C00F5F8002220218E4801F0F0F8002240211A
:10085C008B4801F0EBF801228021894801F0E6F881
:10086C0000224FF48071864801F0E0F803E1002289
:10087C000421834801F0DAF800220821804801F0B5
:10088C00D5F8002210217E4801F0D0F8002220215A
:10089C007B4801F0CBF801224021794801F0C6F8E1
:1008AC0001228021764801F0C1F800224FF48071BA
:1008BC00734801F0BBF8DEE001220421704801F01E
:1008CC00B5F8002208216E4801F0B0F80022102182
:1008DC006B4801F0ABF801222021694801F0A6F821
:1008EC0001224021664801F0A1F8002280216448D1
:1008FC0001F09CF800224FF48071614801F096F8E9
:10090C00B9E0002204215E4801F090F80122082190
:10091C005B4801F08BF800221021594801F086F851
:10092C0000222021564801F081F801224021544830
:10093C0001F07CF800228021514801F077F8002268
:10094C004FF480714E4801F071F894E000220421BC
:10095C004B4801F06BF801220821494801F066F878
:10096C0000221021464801F061F800222021444861
:10097C0001F05CF800224021414801F057F80022B8
:10098C0080213F4801F052F800224FF480713C481E
:10099C0001F04CF86FE000220421394801F046F8D0
:1009AC0000220821364801F041F800221021344879
:1009BC0001F03CF801222021314801F037F80122E6
:1009CC0040212F4801F032F8012280212C4801F0FF
:1009DC002DF801224FF48071294801F027F84AE0E4
:1009EC0000220421264801F021F800220821244885
:1009FC0001F01CF800221021214801F017F8002208
:100A0C0020211F4801F012F8002240211C4801F05F
:100A1C000DF8002280211A4801F008F800224FF44A
:100A2C008071174801F002F825E0002204211448D7
:100A3C0000F0FCFF00220821114800F0F7FF002213
:100A4C0010210F4800F0F2FF002220210C4800F08A
:100A5C00EDFF012240210A4800F0E8FF002280212E
:100A6C00074800F0E3FF00224FF48071044800F0C7
:100A7C00DDFF00E000BF00BF0837BD4680BD00BFF2
:100A8C00000C014080B582B000AF78607B68092B08
:100A9C0000F2C88101A252F823F000BFD10A00086D
:100AAC00270B00087D0B0008D30B0008290C00084D
:100ABC007F0C0008D50C00082B0D0008810D0008D8
:100ACC00D70D000800224FF40071D54800F0AEFF9E
:100ADC0000224FF48061D24800F0A8FF00224FF4AE
:100AEC000061CF4800F0A2FF00224FF48051CC48A7
:100AFC0000F09CFF00224FF40051C94800F096FF13
:100B0C0000224FF48041C64800F090FF01224FF4C0
:100B1C000041C34800F08AFF85E101224FF40071C7
:100B2C00BF4800F083FF00224FF48061BC4800F006
:100B3C007DFF00224FF40061B94800F077FF0122DD
:100B4C004FF48051B64800F071FF01224FF4005170
:100B5C00B34800F06BFF01224FF48041B04800F025
:100B6C0065FF01224FF40041AD4800F05FFF5AE1F0
:100B7C0000224FF40071AA4800F058FF00224FF4F5
:100B8C008061A74800F052FF01224FF40061A44895
:100B9C0000F04CFF00224FF48051A14800F046FFBA
:100BAC0000224FF400519E4800F040FF01224FF408
:100BBC0080419B4800F03AFF00224FF400419848D6
:100BCC0000F034FF2FE100224FF40071944800F044
:100BDC002DFF00224FF48061914800F027FF002286
:100BEC004FF400618E4800F021FF00224FF4805139
:100BFC008B4800F01BFF01224FF40051884800F095
:100C0C0015FF01224FF48041854800F00FFF0022B0
:100C1C004FF40041824800F009FF04E101224FF437
:100C2C0000717F4800F002FF00224FF480617C4885
:100C3C0000F0FCFE00224FF40061794800F0F6FE53
:100C4C0001224FF48051764800F0F0FE01224FF45F
:100C5C000051734800F0EAFE00224FF480417048C6
:100C6C0000F0E4FE00224FF400416D4800F0DEFE7F
:100C7C00D9E000224FF40071694800F0D7FE012240
:100C8C004FF48061664800F0D1FE00224FF4006101
:100C9C00634800F0CBFE00224FF48051604800F016
:100CAC00C5FE01224FF400515D4800F0BFFE00224A
:100CBC004FF480415A4800F0B9FE00224FF4004135
:100CCC00574800F0B3FEAEE000224FF400715448D8
:100CDC0000F0ACFE01224FF48061514800F0A6FEFA
:100CEC0000224FF400614E4800F0A0FE00224FF4A9
:100CFC0080514B4800F09AFE00224FF400514848B6
:100D0C0000F094FE00224FF48041454800F08EFE26
:100D1C0000224FF40041424800F088FE83E000229C
:100D2C004FF400713E4800F081FE00224FF48061C8
:100D3C003B4800F07BFE00224FF40061384800F085
:100D4C0075FE01224FF48051354800F06FFE0122F0
:100D5C004FF40051324800F069FE01224FF48041FB
:100D6C002F4800F063FE01224FF400412C4800F0A4
:100D7C005DFE58E000224FF40071294800F056FE49
:100D8C0000224FF48061264800F050FE00224FF400
:100D9C000061234800F04AFE00224FF480512048A5
:100DAC0000F044FE00224FF400511D4800F03EFEBE
:100DBC0000224FF480411A4800F038FE00224FF414
:100DCC000041174800F032FE2DE000224FF4007174
:100DDC00134800F02BFE00224FF48061104800F005
:100DEC0025FE00224FF400610D4800F01FFE00228A
:100DFC004FF480510A4800F019FE01224FF40051C3
:100E0C00074800F013FE00224FF48041044800F024
:100E1C000DFE00224FF40041014800F007FE02E0F5
:100E2C00000C014000BF00BF0837BD4680BD00BFAD
:100E3C0080B500AF00F00EFB00F012F800F098F84F
:100E4C0000F04AF8044801F037FA044B00221A600B
:100E5C00FFF772FBFCE700BF5C000020580000208D
:100E6C0080B590B000AF07F1180328220021184676
:100E7C0001F0AEFD3B1D00221A605A609A60DA60E8
:100E8C001A610223BB610123BB621023FB620023A6
:100E9C007B6307F11803184600F0E0FD0346002BB6
:100EAC0001D000F0D3F80F237B600023BB6000233C
:100EBC00FB6000233B6100237B613B1D0021184636
:100ECC0001F04EF80346002B01D000F0BFF800BF34
:100EDC004037BD4680BD000080B586B000AF07F13D
:100EEC00080300221A605A609A60DA603B460022BE
:100EFC001A605A601D4B4FF080421A601B4B41F632
:100F0C003F725A60194B00229A60184B0922DA6022
:100F1C00164B00221A61154B00229A61134801F0FE
:100F2C007BF90346002B01D000F090F84FF480536E
:100F3C00BB6007F1080319460C4801F0F9FA0346A7
:100F4C00002B01D000F082F800233B6000237B6073
:100F5C003B461946054801F0D1FC0346002B01D055
:100F6C0000F074F800BF1837BD4680BD5C0000204F
:100F7C0080B586B000AF07F1080300221A605A60F2
:100F8C009A60DA60294B9B69284A43F00403936109
:100F9C00264B9B6903F004037B607B68234B9B69A6
:100FAC00224A43F008039361204B9B6903F008032A
:100FBC003B603B68002240F6FE711D4800F036FD98
:100FCC0000224FF6FC711B4800F030FD40F6FE731A
:100FDC00BB600123FB6000233B6102237B6107F1B3
:100FEC0008031946124800F0A5FB4FF6FC73BB60D2
:100FFC000123FB6000233B6102237B6107F10803A3
:10100C0019460C4800F096FB4FF46043BB6000237C
:10101C00FB6001233B6107F108031946044800F00B
:10102C0089FB00BF1837BD4680BD00BF00100240D1
:10103C0000080140000C014080B582B000AF786020
:10104C0000F032F800BF0837BD4680BD80B400AF59
:10105C0072B600BFFEE7000080B483B000AF7860CA
:10106C00054A7B681360054B00221A6000BF0C37E1
:10107C00BD4680BC704700BFA800002010000020B7
:10108C0080B483B000AF7860054A7B681360054B71
:10109C0000221A6000BF0C37BD4680BC704700BFF1
:1010AC0018000020B000002080B400AF294B1B6852
:1010BC00002B0BDD274B1B68013B264A1360254B8D
:1010CC001B68002B02DC244B01221A60234B1B688B
:1010DC00002B0BDD214B1B68013B204A13601F4B7F
:1010EC001B68002B02DC1E4B01221A601D4B1B6877
:1010FC00002B0BDD1B4B1B68013B1A4A1360194B71
:10110C001B68002B02DC184B01221A60174B1B6862
:10111C00002B0BDD154B1B68013B144A1360134B62
:10112C001B68002B02DC124B01221A60114B1B684E
:10113C00002B0BDD0F4B1B68013B0E4A13600D4B54
:10114C001B68002B02DC0C4B01221A6000BFBD4651
:10115C0080BC7047A40000200C000020A8000020D8
:10116C0010000020AC00002014000020180000200B
:10117C00B00000201C000020B400002080B485B01A
:10118C0000AF154B9B69144A43F001039361124B5A
:10119C009B6903F00103BB60BB680F4BDB690E4A14
:1011AC0043F08053D3610C4BDB6903F080537B60BD
:1011BC007B680A4B5B68FB60FB6823F0E063FB60B9
:1011CC00FB6843F08063FB60044AFB68536000BF1C
:1011DC001437BD4680BC704700100240000001402F
:1011EC0080B584B000AF78607B681B68B3F1804F2A
:1011FC0013D10C4BDB690B4A43F00103D361094B50
:10120C00DB6903F00103FB60FB68002200211C205A
:10121C0000F059FA1C2000F072FA00BF1037BD46DE
:10122C0080BD00BF0010024080B400AFFEE780B468
:10123C0000AFFEE780B400AFFEE780B400AFFEE77E
:10124C0080B400AFFEE780B400AF00BFBD4680BCE9
:10125C00704780B400AF00BFBD4680BC704780B4FF
:10126C0000AF00BFBD4680BC704780B500AF00F03A
:10127C0037F900BF80BD000080B500AF024801F017
:10128C0067F800BF80BD00BF5C00002080B400AFD9
:10129C0000BFBD4680BC704780B582B000AF03462E
:1012AC00FB71FB79032B4BD801A252F823F000BF42
:1012BC00CD120008ED1200080D1300082D130008C4
:1012CC0000221021214800F0B1FB012204211F480B
:1012DC0000F0ACFB012208211C4800F0A7FB30E019
:1012EC0001221021194800F0A1FB0022042117480B
:1012FC0000F09CFB01220821144800F097FB20E031
:10130C0001221021114800F091FB012204210F4809
:10131C0000F08CFB002208210C4800F087FB10E049
:10132C0001221021094800F081FB01220421074809
:10133C0000F07CFB01220821044800F077FB00E060
:10134C0000BF00BF0837BD4680BD00BF000801408C
:10135C0080B582B000AF0346FB71FB79032B4BD8F1
:10136C0001A252F823F000BF85130008A513000852
:10137C00C5130008E513000800228021214800F065
:10138C0055FB012220211F4800F050FB0122402177
:10139C001C4800F04BFB30E001228021194800F082
:1013AC0045FB00222021174800F040FB0122402180
:1013BC00144800F03BFB20E001228021114800F092
:1013CC0035FB012220210F4800F030FB0022402188
:1013DC000C4800F02BFB10E001221021094800F012
:1013EC0025FB01220421074800F020FB01220821E3
:1013FC00044800F01BFB00E000BF00BF0837BD46EF
:10140C0080BD00BF00080140FFF740FF0B480C49AE
:10141C000C4A002302E0D458C4500433C4188C4244
:10142C00F9D3094A094C002301E013600432A242AB
:10143C00FBD301F0D5FAFFF7FBFC7047000000204E
:10144C002C000020782A00082C000020BC00002072
:10145C00FEE7000080B500AF084B1B68074A43F05D
:10146C0010031360032000F023F90F2000F008F89C
:10147C00FFF784FE0023184680BD00BF0020024009
:10148C0080B582B000AF7860124B1A68124B1B7893
:10149C0019464FF47A73B3FBF1F3B2FBF3F318462E
:1014AC0000F03BF90346002B01D001230EE07B68D2
:1014BC000F2B0AD8002279684FF0FF3000F003F9A7
:1014CC00064A7B681360002300E0012318460837A6
:1014DC00BD4680BD200000202800002024000020F4
:1014EC0080B400AF054B1B781A46054B1B681344A0
:1014FC00034A136000BFBD4680BC70472800002023
:10150C00B800002080B400AF024B1B681846BD46E3
:10151C0080BC7047B800002080B485B000AF786004
:10152C007B6803F00703FB600C4BDB68BB60BA689D
:10153C004FF6FF031340BB60FB681A02BB681343F2
:10154C0043F0BF6343F40033BB60044ABB68D36011
:10155C0000BF1437BD4680BC704700BF00ED00E0F3
:10156C0080B400AF044BDB681B0A03F0070318467A
:10157C00BD4680BC704700BF00ED00E080B483B076
:10158C0000AF0346FB7197F90730002B0BDBFB799F
:10159C0003F01F02064997F907305B09012000FA96
:1015AC0002F241F8232000BF0C37BD4680BC7047C7
:1015BC0000E100E080B483B000AF03463960FB71FA
:1015CC0097F90730002B0ADB3B68DAB20C4997F924
:1015DC0007301201D2B20B4483F800230AE03B68B7
:1015EC00DAB20849FB7903F00F03043B1201D2B2C3
:1015FC000B441A7600BF0C37BD4680BC704700BF49
:10160C0000E100E000ED00E080B489B000AFF860CC
:10161C00B9607A60FB6803F00703FB61FB69C3F1F7
:10162C000703042B28BF0423BB61FB690433062B7F
:10163C0002D9FB69033B00E000237B614FF0FF32D2
:10164C00BB6902FA03F3DA43BB681A407B699A4020
:10165C004FF0FF317B6901FA03F3D9437B680B40F0
:10166C00134318462437BD4680BC704780B582B002
:10167C0000AF78607B68013BB3F1807F01D301231D
:10168C000FE00A4A7B68013B53600F214FF0FF309B
:10169C00FFF790FF054B00229A60044B07221A605B
:1016AC00002318460837BD4680BD00BF10E000E09F
:1016BC0080B582B000AF78607868FFF72DFF00BF6F
:1016CC000837BD4680BD80B586B000AF0346B96013
:1016DC007A60FB7300237B61FFF742FF78617A68C5
:1016EC00B9687869FFF790FF024697F90F301146F9
:1016FC001846FFF75FFF00BF1837BD4680BD80B5A9
:10170C0082B000AF0346FB7197F907301846FFF71C
:10171C0035FF00BF0837BD4680BD80B582B000AF35
:10172C0078607868FFF7A2FF034618460837BD4675
:10173C0080BD000080B48BB000AF786039600023AE
:10174C007B6200233B6261E101227B6A02FA03F3B4
:10175C00FB613B681B68FA691340BB61BA69FB69A2
:10176C009A4240F050813B685B68974A93425ED046
:10177C00954A934275D8954A934258D0934A9342CE
:10178C006FD8934A934252D0914A934269D8914A66
:10179C0093424CD08F4A934263D88F4A934246D09F
:1017AC008D4A93425DD8122B2AD8122B59D801A2FC
:1017BC0052F823F03B1800081518000827180008E9
:1017CC00691800086F1800086F1800086F180008D7
:1017DC006F1800086F1800086F1800086F180008C1
:1017EC006F1800086F1800086F1800086F180008B1
:1017FC006F1800086F1800081D1800083118000831
:10180C00764A934213D02CE03B68DB683B6229E0BC
:10181C003B68DB6804333B6224E03B68DB680833DD
:10182C003B621FE03B68DB680C333B621AE03B68B1
:10183C009B68002B02D104233B6213E03B689B683E
:10184C00012B05D108233B627B68FA691A6109E018
:10185C0008233B627B68FA695A6103E000233B6210
:10186C0000E000BFBB69FF2B01D87B6801E07B68FF
:10187C0004337B61BB69FF2B02D87B6A9B0002E0BF
:10188C007B6A083B9B003B617B691A680F213B69B3
:10189C0001FA03F3DB431A40396A3B6901FA03F39B
:1018AC001A437B691A603B685B6803F08053002B1A
:1018BC0000F0A9804A4B9B69494A43F001039361AC
:1018CC00474B9B6903F00103BB60BB68454A7B6ACD
:1018DC009B08023352F82330FB607B6A03F003034E
:1018EC009B000F2202FA03F3DB43FA681340FB6000
:1018FC007B683D4A93420DD07B683C4A934207D0AB
:10190C007B683B4A934201D1022304E0032302E0AB
:10191C00012300E000237A6A02F003029200934054
:10192C00FA681343FB602F497B6A9B080233FA6801
:10193C0041F823203B685B6803F48013002B06D02E
:10194C002C4B9A682B49BB6913438B6006E0294BDF
:10195C009A68BB69DB43274913408B603B685B6823
:10196C0003F40013002B06D0224BDA682149BB6923
:10197C001343CB6006E01F4BDA68BB69DB431D49A0
:10198C001340CB603B685B6803F40033002B06D03C
:10199C00184B5A681749BB6913434B6006E0154B4B
:1019AC005A68BB69DB43134913404B603B685B6867
:1019BC0003F48033002B1FD00E4B1A680D49BB6902
:1019CC0013430B601FE000BF000032100000311009
:1019DC000000221000002110000012100000111055
:1019EC00001002400000014000080140000C0140C2
:1019FC0000100140000401400B4B1A68BB69DB432B
:101A0C00094913400B607B6A01337B623B681A689F
:101A1C007B6A22FA03F3002B7FF496AE00BF00BF63
:101A2C002C37BD4680BC70470004014080B483B0A5
:101A3C0000AF78600B467B8013467B707B78002B65
:101A4C0003D07A887B681A6103E07B881A047B6870
:101A5C001A6100BF0C37BD4680BC704780B586B09C
:101A6C0000AF78607B68002B01D1012372E27B68A8
:101A7C001B6803F00103002B00F08780924B5B681E
:101A8C0003F00C03042B0CD08F4B5B6803F00C039E
:101A9C00082B12D18C4B5B6803F48033B3F5803F79
:101AAC000BD1894B1B6803F40033002B6CD07B6883
:101ABC005B68002B68D101234CE27B685B68B3F553
:101ACC00803F06D1804B1B687F4A43F48033136000
:101ADC002EE07B685B68002B0CD17B4B1B687A4A31
:101AEC0023F480331360784B1B68774A23F48023EC
:101AFC0013601DE07B685B68B3F5A02F0CD1724BB3
:101B0C001B68714A43F4802313606F4B1B686E4A49
:101B1C0043F4803313600BE06B4B1B686A4A23F46D
:101B2C0080331360684B1B68674A23F4802313606F
:101B3C007B685B68002B13D0FFF7E4FC386108E08E
:101B4C00FFF7E0FC02463B69D31A642B01D903234F
:101B5C0000E25D4B1B6803F40033002BF0D014E063
:101B6C00FFF7D0FC386108E0FFF7CCFC02463B697C
:101B7C00D31A642B01D90323ECE1534B1B6803F4F8
:101B8C000033002BF0D100E000BF7B681B6803F032
:101B9C000203002B63D04C4B5B6803F00C03002B4F
:101BAC000BD0494B5B6803F00C03082B1CD1464B44
:101BBC005B6803F48033002B16D1434B1B6803F096
:101BCC000203002B05D07B681B69012B01D001237C
:101BDC00C0E13D4B1B6823F0F8027B685B69DB00BE
:101BEC00394913430B603AE07B681B69002B20D00A
:101BFC00364B01221A60FFF785FC386108E0FFF7CD
:101C0C0081FC02463B69D31A022B01D90323A1E1C3
:101C1C002D4B1B6803F00203002BF0D02A4B1B68E2
:101C2C0023F0F8027B685B69DB00274913430B60E8
:101C3C0015E0264B00221A60FFF764FC386108E0BF
:101C4C00FFF760FC02463B69D31A022B01D9032330
:101C5C0080E11D4B1B6803F00203002BF0D17B6865
:101C6C001B6803F00803002B3AD07B689B69002BA0
:101C7C0019D0174B01221A60FFF744FC386108E0B9
:101C8C00FFF740FC02463B69D31A022B01D9032310
:101C9C0060E10D4B5B6A03F00203002BF0D00120D6
:101CAC0000F09CFA1CE00A4B00221A60FFF72AFC99
:101CBC0038610FE0FFF726FC02463B69D31A022B72
:101CCC0008D9032346E100BF001002400000424245
:101CDC0080044242924B5B6A03F00203002BE9D171
:101CEC007B681B6803F00403002B00F0A680002324
:101CFC00FB758B4BDB6903F08053002B0DD1884BAC
:101D0C00DB69874A43F08053D361854BDB6903F071
:101D1C008053BB60BB680123FB75824B1B6803F4CB
:101D2C008073002B18D17F4B1B687E4A43F4807361
:101D3C001360FFF7E7FB386108E0FFF7E3FB0246AF
:101D4C003B69D31A642B01D9032303E1754B1B6840
:101D5C0003F48073002BF0D07B68DB68012B06D179
:101D6C006F4B1B6A6E4A43F0010313622DE07B68D4
:101D7C00DB68002B0CD16A4B1B6A694A23F0010308
:101D8C001362674B1B6A664A23F0040313621CE060
:101D9C007B68DB68052B0CD1614B1B6A604A43F0F6
:101DAC00040313625E4B1B6A5D4A43F0010313622A
:101DBC000BE05B4B1B6A5A4A23F001031362584B2E
:101DCC001B6A574A23F0040313627B68DB68002B01
:101DDC0015D0FFF797FB38610AE0FFF793FB02463B
:101DEC003B69D31A41F28832934201D90323B1E003
:101DFC004B4B1B6A03F00203002BEED014E0FFF7F1
:101E0C0081FB38610AE0FFF77DFB02463B69D31A80
:101E1C0041F28832934201D903239BE0404B1B6A69
:101E2C0003F00203002BEED1FB7D012B05D13C4BC3
:101E3C00DB693B4A23F08053D3617B68DB69002B61
:101E4C0000F08780364B5B6803F00C03082B61D0E5
:101E5C007B68DB69022B46D1334B00221A60FFF7FB
:101E6C0051FB386108E0FFF74DFB02463B69D31A82
:101E7C00022B01D903236DE0294B1B6803F000737F
:101E8C00002BF0D17B681B6AB3F5803F08D1244B43
:101E9C005B6823F400327B689B68214913434B60D9
:101EAC001F4B5B6823F474127B68196A7B685B6A4E
:101EBC000B431B4913434B601B4B01221A60FFF76A
:101ECC0021FB386108E0FFF71DFB02463B69D31A82
:101EDC00022B01D903233DE0114B1B6803F0007367
:101EEC00002BF0D035E0104B00221A60FFF70AFBF4
:101EFC00386108E0FFF706FB02463B69D31A022B58
:101F0C0001D9032326E0064B1B6803F00073002B5A
:101F1C00F0D11EE07B68DB69012B07D1012319E0AE
:101F2C000010024000700040600042420B4B5B68A6
:101F3C00FB60FB6803F480327B681B6A9A4206D113
:101F4C00FB6803F470127B685B6A9A4201D0012330
:101F5C0000E0002318461837BD4680BD0010024033
:101F6C0080B584B000AF786039607B68002B01D1FC
:101F7C000123D0E06A4B1B6803F007033A689A42CE
:101F8C0010D9674B1B6823F0070265493B68134364
:101F9C000B60634B1B6803F007033A689A4201D04D
:101FAC000123B8E07B681B6803F00203002B20D0F0
:101FBC007B681B6803F00403002B05D0594B5B684E
:101FCC00584A43F4E06353607B681B6803F00803D2
:101FDC00002B05D0534B5B68524A43F4605353605B
:101FEC00504B5B6823F0F0027B689B684D491343B0
:101FFC004B607B681B6803F00103002B40D07B68AF
:10200C005B68012B07D1474B1B6803F40033002B93
:10201C0015D101237FE07B685B68022B07D1414B14
:10202C001B6803F00073002B09D1012373E03D4BB7
:10203C001B6803F00203002B01D101236BE0394B29
:10204C005B6823F003027B685B68364913434B6083
:10205C00FFF758FAF8600AE0FFF754FA0246FB68FB
:10206C00D31A41F28832934201D9032353E02D4B0A
:10207C005B6803F00C027B685B689B009A42EBD1B7
:10208C00274B1B6803F007033A689A4210D2244B83
:10209C001B6823F0070222493B6813430B60204B5B
:1020AC001B6803F007033A689A4201D0012332E01F
:1020BC007B681B6803F00403002B08D0194B5B688A
:1020CC0023F4E0627B68DB68164913434B607B6842
:1020DC001B6803F00803002B09D0124B5B6823F438
:1020EC0060527B681B69DB000E4913434B6000F0A8
:1020FC0021F802460B4B5B681B0903F00F030A49DE
:10210C00CB5C22FA03F3094A1360094B1B6818468F
:10211C00FFF7B6F9002318461037BD4680BD00BF47
:10212C0000200240001002404C2A00082000002031
:10213C002400002080B487B000AF0023FB60002394
:10214C00BB6000237B6100237B6000233B611E4B43
:10215C005B68FB60FB6803F00C03042B02D0082BBC
:10216C0003D027E0194B3B6127E0FB689B0C03F085
:10217C000F03174AD35C7B60FB6803F48033002B9E
:10218C0010D0114B5B685B0C03F00103114AD35C5C
:10219C00BB607B680D4A03FB02F2BB68B2FBF3F336
:1021AC007B6104E07B680C4A02FB03F37B617B6977
:1021BC003B6102E0054B3B6100BF3B6918461C3795
:1021CC00BD4680BC704700BF0010024000127A0070
:1021DC005C2A00086C2A000800093D0080B485B018
:1021EC0000AF78600A4B1B680A4AA2FB03235B0A08
:1021FC007A6802FB03F3FB6000BFFB685A1EFA60AF
:10220C00002BF9D100BF00BF1437BD4680BC70470E
:10221C0020000020D34D621080B582B000AF7860F2
:10222C007B68002B01D1012341E07B6893F83D30A2
:10223C00DBB2002B06D17B68002283F83C20786847
:10224C00FEF7CEFF7B68022283F83D207B681A687C
:10225C007B6804331946104600F056FA7B6801225D
:10226C0083F846207B68012283F83E207B6801229C
:10227C0083F83F207B68012283F840207B68012291
:10228C0083F841207B68012283F842207B6801227D
:10229C0083F843207B68012283F844207B68012269
:1022AC0083F845207B68012283F83D2000231846E3
:1022BC000837BD4680BD000080B485B000AF7860A3
:1022CC007B6893F83D30DBB2012B01D0012335E064
:1022DC007B68022283F83D207B681B68DA687B6888
:1022EC001B6842F00102DA607B681B68164A934255
:1022FC0009D07B681B68B3F1804F04D07B681B68E6
:10230C00124A934211D17B681B689B6803F0070348
:10231C00FB60FB68062B10D07B681B681A687B6817
:10232C001B6842F001021A6007E07B681B681A68A0
:10233C007B681B6842F001021A60002318461437B0
:10234C00BD4680BC704700BF002C0140000400401B
:10235C0080B584B000AF78607B681B68DB68FB607D
:10236C007B681B681B69BB60BB6803F00203002B16
:10237C0020D0FB6803F00203002B1BD07B681B688A
:10238C006FF002021A617B6801221A777B681B6866
:10239C009B6903F00303002B03D0786800F098F9D5
:1023AC0005E0786800F08BF9786800F09AF97B68A2
:1023BC0000221A77BB6803F00403002B20D0FB68C3
:1023CC0003F00403002B1BD07B681B686FF0040226
:1023DC001A617B6802221A777B681B689B6903F47D
:1023EC004073002B03D0786800F072F905E0786830
:1023FC0000F065F9786800F074F97B6800221A77B0
:10240C00BB6803F00803002B20D0FB6803F0080323
:10241C00002B1BD07B681B686FF008021A617B686D
:10242C0004221A777B681B68DB6903F00303002B1B
:10243C0003D0786800F04CF905E0786800F03FF9BB
:10244C00786800F04EF97B6800221A77BB6803F0BD
:10245C001003002B20D0FB6803F01003002B1BD0C3
:10246C007B681B686FF010021A617B6808221A7770
:10247C007B681B68DB6903F44073002B03D078681E
:10248C0000F026F905E0786800F019F9786800F09A
:10249C0028F97B6800221A77BB6803F00103002B34
:1024AC000CD0FB6803F00103002B07D07B681B6882
:1024BC006FF001021A617868FEF7BEFDBB6803F08D
:1024CC008003002B0CD0FB6803F08003002B07D09B
:1024DC007B681B686FF080021A61786800F06FFAF5
:1024EC00BB6803F04003002B0CD0FB6803F04003E7
:1024FC00002B07D07B681B686FF040021A6178686C
:10250C0000F0F8F8BB6803F02003002B0CD0FB683C
:10251C0003F02003002B07D07B681B686FF02002B0
:10252C001A61786800F042FA00BF1037BD4680BDD2
:10253C0080B584B000AF786039600023FB737B6892
:10254C0093F83C30012B01D10223B4E07B680122CB
:10255C0083F83C207B68022283F83D207B681B6853
:10256C009B68BB60BB6823F07703BB60BB6823F43C
:10257C007F43BB607B681B68BA689A603B681B68CA
:10258C00B3F5005F3ED0B3F5005F00F28780B3F582
:10259C00805F00F08680B3F5805F7FD8702B1AD0F7
:1025AC00702B7BD8602B50D0602B77D8502B3CD025
:1025BC00502B73D8402B58D0402B6FD8302B64D075
:1025CC00302B6BD8202B60D0202B67D8002B5CD005
:1025DC00102B5AD062E07B6818683B6899683B689E
:1025EC005A683B68DB6800F06AF97B681B689B687B
:1025FC00BB60BB6843F07703BB607B681B68BA6841
:10260C009A604FE07B6818683B6899683B685A6829
:10261C003B68DB6800F053F97B681B689A687B6841
:10262C001B6842F480429A603CE07B6818683B6807
:10263C0059683B68DB681A4600F0CAF87B681B686F
:10264C005021184600F021F92CE07B6818683B6893
:10265C0059683B68DB681A4600F0E8F87B681B6831
:10266C006021184600F011F91CE07B6818683B6883
:10267C0059683B68DB681A4600F0AAF87B681B684F
:10268C004021184600F001F90CE07B681A683B68A1
:10269C001B681946104600F0F8F803E00123FB73A1
:1026AC0000E000BF7B68012283F83D207B6800229C
:1026BC0083F83C20FB7B18461037BD4680BD80B4A8
:1026CC0083B000AF786000BF0C37BD4680BC70474C
:1026DC0080B483B000AF786000BF0C37BD4680BCBF
:1026EC00704780B483B000AF786000BF0C37BD4634
:1026FC0080BC704780B483B000AF786000BF0C37EB
:10270C00BD4680BC7047000080B485B000AF7860D7
:10271C0039607B681B68FB607B682B4A934207D04F
:10272C007B68B3F1804F03D07B68284A934208D171
:10273C00FB6823F07003FB603B685B68FA6813432B
:10274C00FB607B68204A934207D07B68B3F1804FD3
:10275C0003D07B681D4A934208D1FB6823F4407375
:10276C00FB603B68DB68FA681343FB60FB6823F093
:10277C0080023B685B691343FB607B68FA681A60F4
:10278C003B689A687B68DA623B681A687B689A6275
:10279C007B680D4A934203D13B681A697B681A63C4
:1027AC007B6801225A617B681B6903F00103002BD3
:1027BC0005D07B681B6923F001027B681A6100BF9E
:1027CC001437BD4680BC7047002C0140000400400B
:1027DC0080B487B000AFF860B9607A60FB681B6AA0
:1027EC007B61FB681B6A23F00102FB681A62FB68C1
:1027FC009B693B613B6923F0F0033B617B681B01E8
:10280C003A6913433B617B6923F00A037B617A6964
:10281C00BB6813437B61FB683A699A61FB687A6910
:10282C001A6200BF1C37BD4680BC704780B487B0AD
:10283C0000AFF860B9607A60FB681B6A7B61FB686B
:10284C001B6A23F01002FB681A62FB689B693B61F0
:10285C003B6923F470433B617B681B033A69134368
:10286C003B617B6923F0A0037B61BB681B017A6928
:10287C0013437B61FB683A699A61FB687A691A6257
:10288C0000BF1C37BD4680BC704780B485B000AF1C
:10289C00786039607B689B68FB60FB6823F0700391
:1028AC00FB603A68FB68134343F00703FB607B68EB
:1028BC00FA689A6000BF1437BD4680BC704780B47C
:1028CC0087B000AFF860B9607A603B60FB689B68CA
:1028DC007B617B6923F47F437B613B681A027B68D5
:1028EC001A43BB6813437A6913437B61FB687A69AB
:1028FC009A6000BF1C37BD4680BC704780B485B061
:10290C0000AF786039607B6893F83C30012B01D1C3
:10291C00022341E07B68012283F83C207B68022281
:10292C0083F83D207B681B685B68FB607B681B68D9
:10293C009B68BB60FB6823F07003FB603B681B6803
:10294C00FA681343FB607B681B68FA685A607B6803
:10295C001B68144A934209D07B681B68B3F1804F03
:10296C0004D07B681B68104A93420CD1BB6823F0DF
:10297C008003BB603B685B68BA681343BB607B68D1
:10298C001B68BA689A607B68012283F83D207B68DB
:10299C00002283F83C20002318461437BD4680BC27
:1029AC00704700BF002C01400004004080B483B08D
:1029BC0000AF786000BF0C37BD4680BC704780B458
:1029CC0083B000AF786000BF0C37BD4680BC704749
:1029DC0003460244934200D1704703F8011BF9E708
:1029EC0070B500260C4D0D4C641BA410A64209D1E9
:1029FC0000F01AF800260A4D0A4C641BA410A642DB
:102A0C0005D170BD55F8043B98470136EEE755F8F3
:102A1C00043B98470136F2E7702A0008702A000838
:102A2C00702A0008742A0008F8B500BFF8BC08BC6E
:102A3C009E467047F8B500BFF8BC08BC9E46704770
:102A4C000000000000000000010203040607080952
:102A5C0002030405060708090A0B0C0D0E0F1010D3
:042A6C000102000063
:042A70003101000828
:042A74000D01000848
:102A78000500000003000000020000000100000043
:102A88000100000001000000640000006400000074
:0C2A980000127A00100000000100000095
:0400000508001415C6
:00000001FF
